:020000040800F2
:1000000000500020B51D0008CD1B0008D51B0008BE
:10001000DD1B0008E51B0008ED1B000800000000C8
:10002000000000000000000000000000F51B0008B8
:10003000011C0008000000000D1C0008191C00082D
:10004000FD1D0008FD1D0008FD1D0008FD1D000828
:10005000FD1D0008FD1D0008FD1D0008FD1D000818
:10006000FD1D0008FD1D0008FD1D0008FD1D000808
:10007000FD1D0008FD1D0008FD1D0008FD1D0008F8
:10008000FD1D0008FD1D0008FD1D0008FD1D0008E8
:10009000FD1D0008FD1D0008FD1D0008FD1D0008D8
:1000A000FD1D0008FD1D0008FD1D0008FD1D0008C8
:1000B000FD1D0008FD1D0008FD1D0008FD1D0008B8
:1000C000FD1D0008FD1D0008FD1D0008FD1D0008A8
:1000D000FD1D0008FD1D0008FD1D0008FD1D000898
:1000E000FD1D0008FD1D0008FD1D000800000000AA
:1000F0000000000000000000000000000000000000
:0C01000000000000000000005FF808F1A3
:1001100010B5054C237833B9044B13B10448AFF341
:1001200000800123237010BDEC01002000000000BE
:10013000308B000808B5034B1BB103490348AFF3EC
:10014000008008BD00000000F0010020308B000896
:10015000034613F8012B002AFBD1181A0138704707
:1001600081F0004102E000BF83F0004330B54FEA68
:1001700041044FEA430594EA050F08BF90EA020FD5
:100180001FBF54EA000C55EA020C7FEA645C7FEA68
:10019000655C00F0E2804FEA5454D4EB5555B8BF8B
:1001A0006D420CDD2C4480EA020281EA030382EAFC
:1001B000000083EA010180EA020281EA0303362D8E
:1001C00088BF30BD11F0004F4FEA01314FF4801C61
:1001D0004CEA113102D0404261EB410113F0004F73
:1001E0004FEA03334CEA133302D0524263EB43032A
:1001F00094EA050F00F0A780A4F10104D5F1200EC8
:100200000DDB02FA0EFC22FA05F2801841F1000122
:1002100003FA0EF2801843FA05F359410EE0A5F1F6
:1002200020050EF1200E012A03FA0EFC28BF4CF027
:10023000020C43FA05F3C01851EBE37101F00045DD
:1002400007D54FF0000EDCF1000C7EEB00006EEBEA
:100250000101B1F5801F1BD3B1F5001F0CD3490874
:100260005FEA30004FEA3C0C04F101044FEA4452CB
:1002700012F5800F80F09A80BCF1004F08BF5FEA52
:10028000500C50F1000041EB045141EA050130BD32
:100290005FEA4C0C404141EB0101013C28BFB1F544
:1002A000801FE9D291F0000F04BF01460020B1FA8F
:1002B00081F308BF2033A3F10B03B3F120020CDA62
:1002C0000C3208DD02F1140CC2F10C0201FA0CF040
:1002D00021FA02F10CE002F11402D8BFC2F1200CA5
:1002E00001FA02F120FA0CFCDCBF41EA0C0190405B
:1002F000E41AA2BF01EB0451294330BD6FEA0404A4
:100300001F3C1CDA0C340EDC04F11404C4F120028E
:1003100020FA04F001FA02F340EA030021FA04F3A0
:1003200045EA030130BDC4F10C04C4F1200220FAF7
:1003300002F001FA04F340EA0300294630BD21FA35
:1003400004F0294630BD94F0000F83F4801306BFFB
:1003500081F480110134013D4EE77FEA645C18BFEF
:100360007FEA655C29D094EA050F08BF90EA020F86
:1003700005D054EA000C04BF1946104630BD91EA7E
:10038000030F1EBF0021002030BD5FEA545C05D181
:100390004000494128BF41F0004130BD14F58004C0
:1003A0003CBF01F5801130BD01F0004545F0FE4134
:1003B00041F470014FF0000030BD7FEA645C1ABF69
:1003C000194610467FEA655C1CBF0B46024650EAA0
:1003D000013406BF52EA033591EA030F41F40021CC
:1003E00030BD00BF90F0000F04BF0021704730B552
:1003F0004FF4806404F132044FF000054FF0000127
:1004000050E700BF90F0000F04BF0021704730B5E7
:100410004FF4806404F1320410F0004548BF4042BC
:100420004FF000013EE700BF42004FEAE2014FEA11
:1004300031014FEA02701FBF12F07F4393F07F4FEC
:1004400081F06051704732F07F4208BF704793F0EF
:100450007F4F04BF41F40021704730B54FF4607402
:1004600001F0004521F000411CE700BF50EA010205
:1004700008BF704730B54FF000050AE050EA0102AE
:1004800008BF704730B511F0004502D5404261EB1E
:1004900041014FF4806404F132045FEA915C3FF45F
:1004A000D8AE4FF003025FEADC0C18BF03325FEAFC
:1004B000DC0C18BF033202EBDC02C2F1200300FAAD
:1004C00003FC20FA02F001FA03FE40EA0E0021FAD2
:1004D00002F11444BDE600BF70B54FF0FF0C4CF4C0
:1004E000E06C1CEA11541DBF1CEA135594EA0C0F72
:1004F00095EA0C0F00F0DEF82C4481EA030621EAAD
:100500004C5123EA4C5350EA013518BF52EA0335E7
:1005100041F4801143F4801338D0A0FB02CE4FF099
:100520000005E1FB02E506F00042E0FB03E54FF0C9
:100530000006E1FB03569CF0000F18BF4EF0010EC1
:10054000A4F1FF04B6F5007F64F5407404D25FEABD
:100550004E0E6D4146EB060642EAC62141EA555170
:100560004FEAC52040EA5E504FEACE2EB4F1FD0CB2
:1005700088BFBCF5E06F1ED8BEF1004F08BF5FEA30
:10058000500E50F1000041EB045170BD06F00046E2
:1005900046EA010140EA020081EA0301B4EB5C048F
:1005A000C2BFD4EB0C0541EA045170BD41F4801187
:1005B0004FF0000E013C00F3AB8014F1360FDEBFAC
:1005C000002001F0004170BDC4F10004203C35DA88
:1005D0000C341BDC04F11404C4F1200500FA05F30B
:1005E00020FA04F001FA05F240EA020001F00042AC
:1005F00021F0004110EBD37021FA04F642EB060122
:100600005EEA430E08BF20EAD37070BDC4F10C044B
:10061000C4F1200500FA04F320FA05F001FA04F20F
:1006200040EA020001F0004110EBD37041F10001FB
:100630005EEA430E08BF20EAD37070BDC4F1200506
:1006400000FA05F24EEA020E20FA04F301FA05F26E
:1006500043EA020321FA04F001F0004121FA04F216
:1006600020EA020000EBD3705EEA430E08BF20EAE6
:10067000D37070BD94F0000F0FD101F00046400020
:1006800041EB010111F4801F08BF013CF7D041EAA2
:10069000060195F0000F18BF704703F000465200A6
:1006A00043EB030313F4801F08BF013DF7D043EA77
:1006B0000603704794EA0C0F0CEA135518BF95EA2D
:1006C0000C0F0CD050EA410618BF52EA4306D1D1B4
:1006D00081EA030101F000414FF0000070BD50EAD3
:1006E000410606BF1046194652EA430619D094EA5D
:1006F0000C0F02D150EA013613D195EA0C0F05D147
:1007000052EA03361CBF104619460AD181EA03019A
:1007100001F0004141F0FE4141F470014FF0000052
:1007200070BD41F0FE4141F4780170BD70B54FF0ED
:10073000FF0C4CF4E06C1CEA11541DBF1CEA13556D
:1007400094EA0C0F95EA0C0F00F0A7F8A4EB05044F
:1007500081EA030E52EA03354FEA013100F0888046
:100760004FEA03334FF0805545EA131343EA12630F
:100770004FEA022245EA111545EA10654FEA0026C4
:100780000EF000419D4208BF964244F1FD0404F57D
:10079000407402D25B084FEA3202B61A65EB0305D9
:1007A0005B084FEA32024FF480104FF4002CB6EB96
:1007B000020E75EB030E22BFB61A754640EA0C0016
:1007C0005B084FEA3202B6EB020E75EB030E22BF56
:1007D000B61A754640EA5C005B084FEA3202B6EB97
:1007E000020E75EB030E22BFB61A754640EA9C0056
:1007F0005B084FEA3202B6EB020E75EB030E22BF26
:10080000B61A754640EADC0055EA060E18D04FEAE3
:10081000051545EA16754FEA06164FEAC30343EA83
:1008200052734FEAC2025FEA1C1CC0D111F4801F50
:100830000BD141EA00014FF000004FF0004CB6E749
:1008400011F4801F04BF01430020B4F1FD0C88BFE8
:10085000BCF5E06F3FF6AFAEB5EB030C04BFB6EBF3
:10086000020C5FEA500C50F1000041EB045170BDE6
:100870000EF0004E4EEA113114EB5C04C2BFD4EB13
:100880000C0541EA045170BD41F480114FF0000E97
:10089000013C90E645EA060E8DE60CEA135594EA13
:1008A0000C0F08BF95EA0C0F3FF43BAF94EA0C0F16
:1008B0000AD150EA01347FF434AF95EA0C0F7FF48B
:1008C00025AF104619462CE795EA0C0F06D152EADF
:1008D00003353FF4FDAE1046194622E750EA4106C3
:1008E00018BF52EA43067FF4C5AE50EA41047FF4D4
:1008F0000DAF52EA43057FF4EBAE12E74FF0FF3C39
:1009000006E000BF4FF0010C02E000BF4FF0010C09
:100910004DF804CD4FEA410C7FEA6C5C4FEA430C82
:1009200018BF7FEA6C5C1BD001B050EA410C0CBFD1
:1009300052EA430C91EA030F02BF90EA020F002033
:10094000704710F1000F91EA030F58BF994208BF9A
:1009500090422CBFD8176FEAE37040F00100704757
:100960004FEA410C7FEA6C5C02D150EA013C07D1AE
:100970004FEA430C7FEA6C5CD6D152EA033CD3D0F9
:100980005DF8040B704700BF8446104662468C46F3
:100990001946634600E000BF01B5FFF7B7FF002826
:1009A00048BF10F1000F01BD4DF808EDFFF7F4FF4F
:1009B0000CBF012000205DF808FB00BF4DF808EDDA
:1009C000FFF7EAFF34BF012000205DF808FB00BFFD
:1009D0004DF808EDFFF7E0FF94BF012000205DF81F
:1009E00008FB00BF4DF808EDFFF7CEFF94BF0120D4
:1009F00000205DF808FB00BF4DF808EDFFF7C4FFCD
:100A000034BF012000205DF808FB00BF4FEA410C15
:100A10007FEA6C5C02D150EA013C0AD14FEA430CF8
:100A20007FEA6C5C02D152EA033C02D14FF0000035
:100A300070474FF0010070474FEA410212F5001273
:100A400015D211D56FF47873B3EB625212D94FEA15
:100A5000C12343F0004343EA505311F0004F23FAFF
:100A600002F018BF404270474FF00000704750EA54
:100A7000013005D111F0004008BF6FF00040704711
:100A80004FF00000704700BF4A0011D212F500126B
:100A900011D20DD56FF47873B3EB62520ED44FEAD6
:100AA000C12343F0004343EA505323FA02F0704756
:100AB0004FF00000704750EA013002D14FF0FF3094
:100AC00070474FF0000070474FEA4102B2F1E04337
:100AD00024BFB3F5001CDCF1FE5C0DD901F0004C25
:100AE0004FEAC0024CEA5070B2F1004F40EB830075
:100AF00008BF20F00100704711F0804F21D113F1A1
:100B00003872BCBF01F00040704741F480114FEAD9
:100B10005252C2F11802C2F1200C10FA0CF320FA62
:100B200002F018BF40F001004FEAC1234FEAD3237F
:100B300003FA0CFC40EA0C0023FA02F34FEA4303E9
:100B4000CCE77FEA625307D150EA01331EBF4FF072
:100B5000FE4040F44000704701F0004040F0FE408D
:100B600040F40000704700BF80F0004002E000BF8A
:100B700081F0004142001FBF5FEA410392EA030F88
:100B80007FEA226C7FEA236C6AD04FEA1262D2EBD2
:100B90001363C1BFD218414048404140B8BF5B42D7
:100BA000192B88BF704710F0004F40F4000020F070
:100BB0007F4018BF404211F0004F41F4000121F086
:100BC0007F4118BF494292EA030F3FD0A2F10102D0
:100BD00041FA03FC10EB0C00C3F1200301FA03F10E
:100BE00000F0004302D5494260EB4000B0F5000F31
:100BF00013D3B0F1807F06D340084FEA310102F1F0
:100C00000102FE2A51D2B1F1004F40EBC25008BFA1
:100C100020F0010040EA03007047490040EB00006B
:100C2000013A28BFB0F5000FEDD2B0FA80FCACF16C
:100C3000080CB2EB0C0200FA0CF0AABF00EBC25099
:100C400052421843BCBFD0401843704792F0000F87
:100C500081F4000106BF80F400000132013BB5E7DA
:100C60004FEA41037FEA226C18BF7FEA236C21D050
:100C700092EA030F04D092F0000F08BF08467047B5
:100C800090EA010F1CBF0020704712F07F4F04D183
:100C9000400028BF40F00040704712F100723CBF96
:100CA00000F50000704700F0004343F0FE4040F4C0
:100CB000000070477FEA226216BF08467FEA23637E
:100CC0000146420206BF5FEA412390EA010F40F469
:100CD000800070474FF0000304E000BF10F00043B5
:100CE00048BF40425FEA000C08BF704743F096439C
:100CF00001464FF000001CE050EA010208BF7047B7
:100D00004FF000030AE000BF50EA010208BF70473D
:100D100011F0004302D5404261EB41015FEA010C52
:100D200002BF84460146002043F0B64308BFA3F14A
:100D30008053A3F50003BCFA8CF2083AA3EBC2532C
:100D400010DB01FA02FC634400FA02FCC2F120024B
:100D5000BCF1004F20FA02F243EB020008BF20F082
:100D60000100704702F1200201FA02FCC2F12002E8
:100D700050EA4C0021FA02F243EB020008BF20EADD
:100D8000DC7070474FF0FF0C1CEAD0521EBF1CEA0B
:100D9000D15392EA0C0F93EA0C0F6FD01A4480EAF9
:100DA000010C400218BF5FEA41211ED04FF00063E2
:100DB00043EA501043EA5111A0FB01310CF000400E
:100DC000B1F5000F3EBF490041EAD3715B0040EA34
:100DD000010062F17F02FD2A1DD8B3F1004F40EB04
:100DE000C25008BF20F00100704790F0000F0CF0D7
:100DF000004C08BF49024CEA502040EA51207F3A9B
:100E0000C2BFD2F1FF0340EAC250704740F4000075
:100E10004FF00003013A5DDC12F1190FDCBF00F066
:100E200000407047C2F10002410021FA02F1C2F114
:100E3000200200FA02FC5FEA310040F1000053EAB0
:100E40004C0308BF20EADC70704792F0000F00F0FE
:100E5000004C02BF400010F4000F013AF9D040EA04
:100E60000C0093F0000F01F0004C02BF490011F498
:100E7000000F013BF9D041EA0C018FE70CEAD15396
:100E800092EA0C0F18BF93EA0C0F0AD030F0004C16
:100E900018BF31F0004CD8D180EA010000F00040CA
:100EA000704790F0000F17BF90F0004F084691F088
:100EB000000F91F0004F14D092EA0C0F01D14202C2
:100EC0000FD193EA0C0F03D14B0218BF084608D18B
:100ED00080EA010000F0004040F0FE4040F40000D5
:100EE000704740F0FE4040F4400070474FF0FF0C68
:100EF0001CEAD0521EBF1CEAD15392EA0C0F93EAAF
:100F00000C0F69D0A2EB030280EA010C49024FEA00
:100F1000402037D04FF0805343EA111143EA1013B9
:100F20000CF000408B4238BF5B0042F17D024FF471
:100F3000000C8B4224BF5B1A40EA0C00B3EB510F4C
:100F400024BFA3EB510340EA5C00B3EB910F24BF35
:100F5000A3EB910340EA9C00B3EBD10F24BFA3EBBA
:100F6000D10340EADC001B0118BF5FEA1C1CE0D182
:100F7000FD2A3FF650AF8B4240EBC25008BF20F035
:100F8000010070470CF0004C4CEA50207F32C2BF89
:100F9000D2F1FF0340EAC250704740F400004FF026
:100FA0000003013A37E792F0000F00F0004C02BF57
:100FB000400010F4000F013AF9D040EA0C0093F021
:100FC000000F01F0004C02BF490011F4000F013B7B
:100FD000F9D041EA0C0195E70CEAD15392EA0C0FE3
:100FE00008D142027FF47DAF93EA0C0F7FF470AF1B
:100FF000084676E793EA0C0F04D14B023FF44CAF5E
:1010000008466EE730F0004C18BF31F0004CCAD1F2
:1010100030F000427FF45CAF31F000437FF43CAF2E
:101020005FE700BF4FF0FF3C06E000BF4FF0010C50
:1010300002E000BF4FF0010C4DF804CD4FEA400232
:101040004FEA41037FEA226C18BF7FEA236C11D07C
:1010500001B052EA530C18BF90EA010F58BFB2EB2F
:10106000030088BFC81738BF6FEAE17018BF40F0AF
:10107000010070477FEA226C02D15FEA402C05D163
:101080007FEA236CE4D15FEA412CE1D05DF8040BE8
:10109000704700BF844608466146FFE70FB5FFF77B
:1010A000C9FF002848BF10F1000F0FBD4DF808ED33
:1010B000FFF7F4FF0CBF012000205DF808FB00BF24
:1010C0004DF808EDFFF7EAFF34BF012000205DF87E
:1010D00008FB00BF4DF808EDFFF7E0FF94BF0120CB
:1010E00000205DF808FB00BF4DF808EDFFF7D2FFC8
:1010F00094BF012000205DF808FB00BF4DF808ED0B
:10110000FFF7C8FF34BF012000205DF808FB00BFD7
:1011100038B50022002304460D46FFF74FFC28B9DE
:1011200020462946BDE8384000F00AB8204605F1BF
:10113000004100F005F8404261EB410138BD00BFBD
:10114000D0B500220B4B06460F46FFF7C5F9FFF757
:101150009BFC0446FFF746F90022074BFFF7BCF95A
:1011600002460B4630463946FEF7FEFFFFF78CFC81
:101170002146D0BD0000F03D0000F04180B588B0B0
:1011800004AFF8600B467A60FB72FB681868FB7A64
:101190009AB264230293012301937B680093012395
:1011A0001C2101F071FB034618461037BD4680BD77
:1011B00080B586B004AF78600B46FB701346BB70F9
:1011C0007B681868FB789AB2642302930123019329
:1011D000BB1C009301231C2101F05CFA0346184656
:1011E0000837BD4680BD80B584B000AF78603960F7
:1011F0007B683A681A6007F10F031A46072178687E
:10120000FFF7BCFF0346002B01D0012317E0FB7B57
:10121000C42B01D0012312E0002210217868FFF7CF
:10122000C7FF802211217868FFF7C2FF0122102139
:101230007868FFF7BDFF0A2000F044FE002318463F
:101240001037BD4680BD80B58AB004AFF860B96084
:101250007A603B6007F117031A460021F868FFF730
:101260008DFF0346002B01D0012336E0FB7D03F008
:101270000803002BEED0FB68186864230293062352
:10128000019307F110030093012301221C2101F0B7
:10129000FBFA0346002B01D001231EE03B7C1BB26E
:1012A0001B021AB27B7C1BB213431AB2BB681A80B2
:1012B000BB7C1BB21B021AB2FB7C1BB213431AB2DB
:1012C0007B681A803B7D1BB21B021AB27B7D1BB26E
:1012D00013431AB23B681A80002318461837BD46DC
:1012E00080BD000080B586B000AFF860B9607A605C
:1012F0003B6007F1120307F1140207F11601F868C9
:10130000FFF7A1FF0346002B01D001232AE0B7F924
:1013100016301846FFF7E2FC034614491846FFF75B
:1013200031FD03461A46BB681A60B7F914301846F7
:10133000FFF7D4FC03460D491846FFF723FD03468B
:101340001A467B681A60B7F912301846FFF7C6FCD8
:10135000034606491846FFF715FD03461A463B6843
:101360001A60002318461837BD4680BDCDCCCC3D51
:1013700080B582B000AF7860391D4FF0FF33012295
:10138000034802F037FE012318460837BD4680BDEA
:10139000B00200202DE9B0438CB004AF00F030FD66
:1013A00000F004FA00F0C4FA00F03CFA00F096FAFB
:1013B00000F066FA6E496F48FFF715FF0123FB77CF
:1013C00013E0FB7F9BB25B0099B20A2302226848BC
:1013D00001F0CEFC0346002B04D1FB7F1946664882
:1013E00003F002FFFB7F0133FB7797F91F30002BDF
:1013F000E7DA5F495F48FFF7F6FE0346002B02D0AD
:101400005E4803F059FF5E4B5E4A5F495948FFF75B
:1014100069FF5D4B1B685D4A126811461846FFF76D
:10142000A7FB034623F00043BB61564B1B68584A99
:10143000126811461846FFF79BFB034623F0004352
:101440007B614F4B1B68534A126811461846FFF7E1
:101450008FFB034623F000433B614FF08141B869A5
:10146000FFF74CFE0346002B0FD14FF08141786906
:10147000FFF744FE0346002B07D14FF08141386946
:10148000FFF73CFE0346002B01D0012300E00023C0
:10149000FB73414B1B78002B40F001813F4803F068
:1014A0000BFF012202213E4800F098FF364B1B68DB
:1014B0003C4A126811461846FFF702FE0346002B0D
:1014C00003D0314B1B68374A13602F4B1B68364AD9
:1014D000126811461846FFF711FE0346002B03D091
:1014E000294B1B68304A1360264B1B682F4A126831
:1014F00011461846FFF7E4FD0346002B03D0214BAD
:101500001B682A4A13601F4B1B68294A1268114640
:101510001846FFF7F3FD0346002B03D0194B1B6859
:10152000234A1360164B1B68224A1268114618465C
:10153000FFF7C6FD0346002B03D0114B1B681D4A65
:1015400013600F4B1B681C4A126811461846FFF7C0
:10155000D5FD0346002B03D0094B1B68164A1360C8
:10156000FB7B002B2CD0154B00221A602DE000BF16
:1015700008020020F8020020488B0008688B000851
:101580000403002000030020FC02002014030020BC
:10159000180300201C030020200300207C8B00087F
:1015A0000008014000000020040000200800002086
:1015B0000C00002010000020140000202403002054
:1015C000634B1B680133624A1360614B1B681E2B1F
:1015D00040F2AE805F4B1B685F4A126811461846A6
:1015E000FFF7C8FA03464FF080411846FFF77EFC2C
:1015F00003461A46594B1A60594B1B68594A1268E0
:1016000011461846FFF7B6FA03464FF080411846D8
:10161000FFF76CFC03461A46534B1A60534B1B688A
:10162000534A126811461846FFF7A4FA03464FF0D2
:1016300080411846FFF75AFC03461A464D4B1A6084
:101640004D4B01221A70002202214C4800F0C6FEC8
:101650004B4803F031FE414B1B681846FEF7E4FE91
:1016600080468946404B1B681846FEF7DDFE04465F
:101670000D46404B1B681846FEF7D6FE02460B4649
:10168000CDE90223CDE9004542464B463D4803F0F3
:10169000ABFD01220121394800F0A0FE48E03A4BA1
:1016A0001B682E4A126811461846FFF761FA034676
:1016B000BB60364B1B682C4A126811461846FFF770
:1016C00057FA03467B60324B1B682A4A1268114660
:1016D0001846FFF74DFA03463B60B868FEF7A4FED4
:1016E000804689467868FEF79FFE04460D463868B6
:1016F000FEF79AFE02460B46CDE90223CDE90045EE
:1017000042464B46234803F06FFDFB7B002B09D07C
:1017100001224FF40041204800F060FE1F4803F012
:10172000CBFD05E000224FF400411B4800F056FEBF
:10173000154B1B681A4A1360144B1B68194A136037
:10174000134B1B68184A1360642000F0BBFB5AE679
:1017500024030020040000200000002008030020D3
:101760000C000020080000200C03002014000020C2
:10177000100000201003002020030020000801407A
:10178000988B0008AC8B0008FC02002000030020AE
:1017900004030020E48B000800100140108C0008B6
:1017A00014030020180300201C03002080B590B013
:1017B00000AF07F1180328220021184603F07EFE2F
:1017C0003B1D00221A605A609A60DA601A61022397
:1017D000BB610123BB621023FB6200237B6307F123
:1017E0001803184601F0A6FF0346002B01D000F0B5
:1017F000FFF80F237B600023BB600023FB60002306
:101800003B6100237B613B1D0021184602F014FA66
:101810000346002B01D000F0EBF800BF4037BD4677
:1018200080BD000080B500AF124B134A1A60114B07
:10183000124A5A600F4B00229A600E4B0022DA6067
:101840000C4B4FF480421A610A4B00225A61094B3B
:1018500000229A61074B0022DA61064B00221A62CD
:10186000044800F0D3FD0346002B01D000F0C0F87F
:1018700000BF80BD0802002000540040A086010087
:1018800080B500AF124B134A1A60114B124A5A60CE
:101890000F4B00229A600E4B0022DA600C4B4FF483
:1018A00080421A610A4B00225A61094B00229A6158
:1018B000074B0022DA61064B00221A62044800F04E
:1018C000A5FD0346002B01D000F092F800BF80BDBB
:1018D0005C02002000580040A086010080B500AFE7
:1018E000114B124A1A60104B4FF4E1325A600E4B02
:1018F00000229A600C4B0022DA600B4B00221A6126
:10190000094B0C225A61084B00229A61064B0022B7
:10191000DA61054802F01EFB0346002B01D000F0FF
:1019200067F800BF80BD00BFB00200200044004047
:1019300080B588B000AF07F1100300221A605A602A
:101940009A60DA60274B9B69264A43F01003936143
:10195000244B9B6903F01003FB60FB68214B9B69E0
:10196000204A43F0040393611E4B9B6903F0040378
:10197000BB60BB681B4B9B691A4A43F00803936129
:10198000184B9B6903F008037B607B6800224FF4CF
:101990000041154800F022FD00220321134800F009
:1019A0001DFD4FF400433B6101237B610023BB61BC
:1019B0000223FB6107F1100319460B4800F08AFB74
:1019C00003233B6101237B610023BB610223FB6195
:1019D00007F110031946054800F07CFB00BF2037D3
:1019E000BD4680BD001002400010014000080140CB
:1019F00080B400AF72B600BF00BFFDE780B485B011
:101A000000AF154B9B69144A43F001039361124BDD
:101A10009B6903F00103BB60BB680F4BDB690E4A97
:101A200043F08053D3610C4BDB6903F080537B6040
:101A30007B680A4B5B68FB60FB6823F0E063FB603C
:101A4000FB6843F08063FB60044AFB68536000BF9F
:101A50001437BD4680BC70470010024000000140B2
:101A600080B58AB000AF786007F1180300221A60D1
:101A70005A609A60DA607B681B682B4A934224D1D3
:101A80002A4B9B69294A43F008039361274B9B69C2
:101A900003F008037B617B69C023BB611223FB61F8
:101AA00003237B6207F118031946214800F012FB5B
:101AB0001E4BDB691D4A43F40013D3611B4BDB69EA
:101AC00003F400133B613B6929E07B681B68194AFA
:101AD000934224D1154B9B69144A43F00803936148
:101AE000124B9B6903F00803FB60FB684FF44063F3
:101AF000BB611223FB6103237B6207F118031946C4
:101B00000B4800F0E7FA094BDB69084A43F480030D
:101B1000D361064BDB6903F48003BB60BB6800BF85
:101B20002837BD4680BD00BF005400400010024071
:101B3000000C01400058004080B588B000AF7860CC
:101B400007F1100300221A605A609A60DA607B681D
:101B50001B681B4A93422FD11A4BDB69194A43F485
:101B60000033D361174BDB6903F40033FB60FB6880
:101B7000144B9B69134A43F004039361114B9B6917
:101B800003F00403BB60BB6804233B6102237B6159
:101B90000323FB6107F1100319460B4800F09AFA82
:101BA00008233B6100237B610023BB6107F1100325
:101BB0001946054800F08EFA00BF2037BD4680BDAB
:101BC00000440040001002400008014080B400AF13
:101BD00000BFFDE780B400AF00BFFDE780B400AFF9
:101BE00000BFFDE780B400AF00BFFDE780B400AFE9
:101BF00000BFFDE780B400AF00BFBD4680BC7047AA
:101C000080B400AF00BFBD4680BC704780B400AF59
:101C100000BFBD4680BC704780B500AF00F036F90C
:101C200000BF80BD80B400AF01231846BD4680BC14
:101C3000704780B582B000AF7860396003F090FCE7
:101C4000034616221A604FF0FF3318460837BD4688
:101C500080BD80B582B000AF78604FF0FF3178680A
:101C6000FFF7E7FF00BFFDE780B586B000AFF86083
:101C7000B9607A6000237B610AE0AFF3008001461F
:101C8000BB685A1CBA60CAB21A707B6901337B61A7
:101C90007A697B689A42F0DB7B6818461837BD4644
:101CA00080BD80B586B000AFF860B9607A6000236F
:101CB0007B6109E0BB685A1CBA601B781846FFF7C5
:101CC00057FB7B6901337B617A697B689A42F1DB60
:101CD0007B6818461837BD4680BD80B483B000AF1E
:101CE00078604FF0FF3318460C37BD4680BC704714
:101CF00080B483B000AF786039603B684FF4005225
:101D00005A60002318460C37BD4680BC704780B42B
:101D100083B000AF7860012318460C37BD4680BC05
:101D2000704780B485B000AFF860B9607A60002376
:101D300018461437BD4680BC7047000080B586B099
:101D400000AF7860144A154BD31A7B617B693B6105
:101D5000134B1B68002B02D1114B124A1A60104B17
:101D60001A687B6813443A699A4207D203F0F8FB79
:101D700003460C221A604FF0FF3309E0084B1B6842
:101D8000FB60074B1A687B681344054A1360FB68C5
:101D900018461837BD4680BD0050002000040000E2
:101DA000280300208004002080B400AF00BFBD469F
:101DB00080BC7047FFF7F8FF0B480C490C4A002322
:101DC00002E0D458C4500433C4188C42F9D3094AF1
:101DD000094C002301E013600432A242FBD303F05C
:101DE000C5FBFFF7D7FA704700000020EC01002088
:101DF0008C900008EC0100207C040020FEE700002D
:101E000080B500AF084B1B68074A43F0100313600E
:101E1000032000F02BF90F2000F008F8FFF7EEFD8B
:101E20000023184680BD00BF0020024080B582B06C
:101E300000AF7860124B1A68124B1B7819464FF4AA
:101E40007A73B3FBF1F3B2FBF3F3184600F035F904
:101E50000346002B01D001230EE07B680F2B0AD82C
:101E6000002279684FF0FF3000F00BF9064A7B68DA
:101E70001360002300E0012318460837BD4680BDEB
:101E800018000020200000201C00002080B400AFBB
:101E9000054B1B781A46054B1B681344034A136015
:101EA00000BFBD4680BC7047200000202C030020EE
:101EB00080B400AF024B1B681846BD4680BC70471B
:101EC0002C03002080B584B000AF7860FFF7F0FFEE
:101ED000B8607B68FB60FB68B3F1FF3F05D00A4B3D
:101EE0001B781A46FB681344FB6000BFFFF7E0FF56
:101EF0000246BB68D31AFA689A42F7D800BF00BFFF
:101F00001037BD4680BD00BF2000002080B485B0E2
:101F100000AF78607B6803F00703FB600C4BDB6865
:101F2000BB60BA684FF6FF031340BB60FB681A0240
:101F3000BB68134343F0BF6343F40033BB60044A00
:101F4000BB68D36000BF1437BD4680BC704700BF7C
:101F500000ED00E080B400AF044BDB681B0A03F027
:101F600007031846BD4680BC704700BF00ED00E087
:101F700080B483B000AF03463960FB7197F9073036
:101F8000002B0ADB3B68DAB20C4997F907301201E3
:101F9000D2B20B4483F800230AE03B68DAB2084966
:101FA000FB7903F00F03043B1201D2B20B441A7603
:101FB00000BF0C37BD4680BC704700BF00E100E0A9
:101FC00000ED00E080B489B000AFF860B9607A60DD
:101FD000FB6803F00703FB61FB69C3F10703042BF4
:101FE00028BF0423BB61FB690433062B02D9FB69BC
:101FF000033B00E000237B614FF0FF32BB6902FA34
:1020000003F3DA43BB681A407B699A404FF0FF3113
:102010007B6901FA03F3D9437B680B4013431846ED
:102020002437BD4680BC704780B582B000AF786071
:102030007B68013BB3F1807F01D301230FE00A4AA3
:102040007B68013B53600F214FF0FF30FFF790FF9B
:10205000054B00229A60044B07221A6000231846A1
:102060000837BD4680BD00BF10E000E080B582B0FB
:1020700000AF78607868FFF749FF00BF0837BD46BA
:1020800080BD80B586B000AF0346B9607A60FB734F
:1020900000237B61FFF75EFF78617A68B968786931
:1020A000FFF790FF024697F90F3011461846FFF7E9
:1020B0005FFF00BF1837BD4680BD80B582B000AF5E
:1020C00078607868FFF7B0FF034618460837BD46CA
:1020D00080BD000080B48BB000AF78603960002311
:1020E0007B6200233B6269E101227B6A02FA03F30F
:1020F000FB613B681B68FA691340BB61BA69FB6905
:102100009A4240F058813B685B689A4A93425ED09D
:10211000984A934275D8984A934258D0964A934227
:102120006FD8964A934252D0944A934269D8944ABF
:1021300093424CD0924A934263D8924A934246D0FB
:10214000904A93425DD8122B2AD8122B59D801A25B
:1021500052F823F0CF210008A9210008BB21000874
:10216000FD210008032200080322000803220008C2
:1021700003220008032200080322000803220008AB
:10218000032200080322000803220008032200089B
:102190000322000803220008B1210008C52100081D
:1021A000794A934213D02CE03B68DB683B6229E01C
:1021B0003B68DB6804333B6224E03B68DB68083340
:1021C0003B621FE03B68DB680C333B621AE03B6814
:1021D0009B68002B02D104233B6213E03B689B68A1
:1021E000012B05D108233B627B68FA691A6109E07B
:1021F00008233B627B68FA695A6103E000233B6273
:1022000000E000BFBB69FF2B01D87B6801E07B6861
:1022100004337B61BB69FF2B02D87B6A9B0002E021
:102220007B6A083B9B003B617B691A680F213B6915
:1022300001FA03F3DB431A40396A3B6901FA03F3FD
:102240001A437B691A603B685B6803F08053002B7C
:1022500000F0B1804D4B9B694C4A43F00103936100
:102260004A4B9B6903F00103BB60BB68484A7B6A29
:102270009B08023352F82330FB607B6A03F00303B0
:102280009B000F2202FA03F3DB43FA681340FB6062
:102290007B68404A934213D07B683F4A93420DD0FB
:1022A0007B683E4A934207D07B683D4A934201D106
:1022B000032306E0042304E0022302E0012300E0FC
:1022C00000237A6A02F0030292009340FA681343F3
:1022D000FB602F497B6A9B080233FA6841F8232090
:1022E0003B685B6803F48013002B06D02D4B9A6883
:1022F0002C49BB6913438B6006E02A4B9A68BB6983
:10230000DB43284913408B603B685B6803F4001390
:10231000002B06D0234BDA682249BB691343CB60FC
:1023200006E0204BDA68BB69DB431E491340CB60F3
:102330003B685B6803F40033002B06D0194B5A68E6
:102340001849BB6913434B6006E0164B5A68BB69DA
:10235000DB43144913404B603B685B6803F48033F4
:10236000002B21D00F4B1A680E49BB6913430B6039
:1023700021E000BF000032100000311000002210E8
:102380000000211000001210000011100010024087
:102390000000014000080140000C01400010014015
:1023A00000140140000401400B4B1A68BB69DB4379
:1023B000094913400B607B6A01337B623B681A68F2
:1023C0007B6A22FA03F3002B7FF48EAE00BF00BFBE
:1023D0002C37BD4680BC70470004014080B483B0F8
:1023E00000AF78600B467B8013467B707B78002BB8
:1023F00003D07A887B681A6103E07B881A047B68C3
:102400001A6100BF0C37BD4680BC704780B584B0F0
:1024100000AF78607B68002B01D101232BE17B6842
:1024200093F83D30DBB2002B06D17B68002283F8A5
:102430003C207868FFF714FB7B68242283F83D205A
:102440007B681B681A687B681B6822F001021A60AF
:102450007B681B681A687B681B6842F400421A603C
:102460007B681B681A687B681B6822F400421A604C
:1024700001F02AFDF8607B685B68814A934207D8C7
:10248000FB68804A934294BF01230023DBB206E03D
:10249000FB687D4A934294BF01230023DBB2002BEB
:1024A00001D00123E7E0FB68784AA2FB03239B0CE1
:1024B000BB607B681B685B6823F03F017B681B681F
:1024C000BA680A435A607B681B681B6A23F03F01A5
:1024D0007B685B686A4A934202D8BB68013309E0B3
:1024E000BB684FF4967202FB03F3694AA2FB032315
:1024F0009B0901337A6812680B4313627B681B687F
:10250000DB6923F44F4222F0FF027B685B685C4981
:102510008B4219D8FB68591E7B685B685B00B1FB76
:10252000F3F3591C40F6FC730B40002B0AD0FB68F8
:10253000591E7B685B685B00B1FBF3F30133C3F3A7
:102540000B0351E004234FE07B689B68002B11D103
:10255000FB68581E7B6859680B465B000B44B0FB58
:10256000F3F30133C3F30B03002B0CBF0123002350
:10257000DBB212E0FB68581E7B6859680B469B0073
:102580000B4499000B44B0FBF3F30133C3F30B038B
:10259000002B0CBF01230023DBB2002B01D0012351
:1025A00022E07B689B68002B0ED1FB68581E7B687D
:1025B00059680B465B000B44B0FBF3F30133C3F3E4
:1025C0000B0343F400430FE0FB68581E7B68596817
:1025D0000B469B000B4499000B44B0FBF3F3013313
:1025E000C3F30B0343F44043796809681343CB6199
:1025F0007B681B681B6823F0C0017B68DA697B6815
:102600001B6A1A437B681B680A431A607B681B6855
:102610009B6823F4034323F0FF037A6811697A6807
:10262000D26811437A6812680B4393607B681B6819
:10263000DB6823F0FF017B685A697B689B691A435A
:102640007B681B680A43DA607B681B681A687B68D2
:102650001B6842F001021A607B6800221A647B68E2
:10266000202283F83D207B6800221A637B680022C9
:1026700083F83E20002318461037BD4680BD00BFBA
:10268000A08601007F841E00FF083D0083DE1B43FF
:10269000D34D621080B588B002AFF860084611468D
:1026A0001A4603467B810B463B811346FB80FFF7AE
:1026B000FFFB7861FB6893F83D30DBB2202B40F0E4
:1026C000D9807B690093192301226D49F86800F0D5
:1026D000FBFD0346002B01D00223CCE0FB6893F8FE
:1026E0003C30012B01D10223C5E0FB68012283F8B5
:1026F0003C20FB681B681B6803F00103012B07D01B
:10270000FB681B681A68FB681B6842F001021A60CC
:10271000FB681B681A68FB681B6822F400621A6079
:10272000FB68212283F83D20FB68402283F83E208D
:10273000FB6800221A64FB683A6A5A62FB68BA8C2A
:102740005A85FB685B8D9AB2FB681A85FB684D4A17
:10275000DA62F8883A8979897B690193BB6A0093C8
:102760000346F86800F032FC0346002B52D00123E8
:1027700081E07A69B96AF86800F0C0FE0346002B70
:102780000DD0FB681B6C042B07D1FB681B681A6813
:10279000FB681B6842F400721A6001236BE0FB685F
:1027A0005B6A1A78FB681B681A61FB685B6A5A1CD3
:1027B000FB685A62FB681B8D013B9AB2FB681A8565
:1027C000FB685B8D9BB2013B9AB2FB685A85FB6844
:1027D0001B685B6903F00403042B1BD1FB681B8D92
:1027E000002B17D0FB685B6A1A78FB681B681A61BC
:1027F000FB685B6A5A1CFB685A62FB681B8D013BD5
:102800009AB2FB681A85FB685B8D9BB2013B9AB25A
:10281000FB685A85FB681B8D002BAAD17A69B96ABF
:10282000F86800F0B3FE0346002B0DD0FB681B6C6C
:10283000042B07D1FB681B681A68FB681B6842F40D
:1028400000721A60012316E0FB681B681A68FB68B7
:102850001B6842F400721A60FB68202283F83D2056
:10286000FB68002283F83E20FB68002283F83C20AE
:10287000002300E0022318461837BD4680BD00BF84
:10288000020010000000FFFF80B58CB002AFF860BE
:10289000084611461A4603467B810B463B81134688
:1028A000FB8000233B62FFF703FB7862FB6893F831
:1028B0003D30DBB2202B40F050827B6A009319231D
:1028C00001228249F86800F0FFFC0346002B01D08A
:1028D000022343E2FB6893F83C30012B01D1022331
:1028E0003CE2FB68012283F83C20FB681B681B6804
:1028F00003F00103012B07D0FB681B681A68FB6813
:102900001B6842F001021A60FB681B681A68FB68CA
:102910001B6822F400621A60FB68222283F83D20C3
:10292000FB68402283F83E20FB6800221A64FB68A3
:102930003A6B5A62FB68BA8E5A85FB685B8D9AB215
:10294000FB681A85FB68624ADA62F8883A897989F5
:102950007B6A0193BB6B00930346F86800F0CCFBE5
:102960000346002B01D00123F8E1FB681B8D002BEF
:1029700013D10023FB61FB681B685B69FB61FB688B
:102980001B689B69FB61FB69FB681B681A68FB6835
:102990001B6842F400721A60CCE1FB681B8D012BAE
:1029A0001ED1FB681B681A68FB681B6822F48062F2
:1029B0001A6072B600BF0023BB61FB681B685B69CD
:1029C000BB61FB681B689B69BB61BB69FB681B68DB
:1029D0001A68FB681B6842F400721A6062B635E040
:1029E000FB681B8D022B1ED1FB681B681A68FB68F5
:1029F0001B6842F400621A6072B600BF00237B615C
:102A0000FB681B685B697B61FB681B689B697B617A
:102A10007B69FB681B681A68FB681B6822F480628C
:102A20001A6062B612E0FB681B681A68FB681B68D4
:102A300042F480621A6000233B61FB681B685B699B
:102A40003B61FB681B689B693B613B6972E1FB680A
:102A50001B8D032B00F21F81FB681B8D012B23D1E3
:102A60007A6AB96BF86800F0D9FD0346002B01D0F3
:102A7000012373E1FB681B681A69FB685B6AD2B2C9
:102A80001A70FB685B6A5A1CFB685A62FB681B8DF4
:102A9000013B9AB2FB681A85FB685B8D9BB2013BD8
:102AA0009AB2FB685A8545E1FB681B8D022B52D117
:102AB0007B6A0093BB6B00220649F86800F004FCB7
:102AC0000346002B08D0012348E100BF020010009C
:102AD0000000FFFF0400010072B600BFFB681B6826
:102AE0001A68FB681B6842F400721A60FB681B6876
:102AF0001A69FB685B6AD2B21A70FB685B6A5A1C7F
:102B0000FB685A62FB681B8D013B9AB2FB681A8511
:102B1000FB685B8D9BB2013B9AB2FB685A8562B63B
:102B200000BFFB681B681A69FB685B6AD2B21A7047
:102B3000FB685B6A5A1CFB685A62FB681B8D013B91
:102B40009AB2FB681A85FB685B8D9BB2013B9AB217
:102B5000FB685A85EEE07B6A0093BB6B00228149DB
:102B6000F86800F0B1FB0346002B01D00123F5E02B
:102B7000FB681B681A68FB681B6822F480621A6095
:102B800072B600BFFB681B681A69FB685B6AD2B249
:102B90001A70FB685B6A5A1CFB685A62FB681B8DE3
:102BA000013B9AB2FB681A85FB685B8D9BB2013BC7
:102BB0009AB2FB685A856C4B1B68DB086B4AA2FB18
:102BC00003231A0A13469B001344DA00D31A3B620C
:102BD0003B6A013B3B623B6A002B18D1FB68002239
:102BE0001A63FB68202283F83D20FB68002283F8EB
:102BF0003E20FB681B6C43F02002FB681A6462B63F
:102C000000BFFB68002283F83C200123A6E0FB689C
:102C10001B685B6903F00403042BD9D1FB681B68B4
:102C20001A68FB681B6842F400721A60FB681B6834
:102C30001A69FB685B6AD2B21A70FB685B6A5A1C3D
:102C4000FB685A62FB681B8D013B9AB2FB681A85D0
:102C5000FB685B8D9BB2013B9AB2FB685A8562B6FA
:102C600000BFFB681B681A69FB685B6AD2B21A7006
:102C7000FB685B6A5A1CFB685A62FB681B8D013B50
:102C80009AB2FB681A85FB685B8D9BB2013B9AB2D6
:102C9000FB685A854EE07A6AB96BF86800F0BEFCB2
:102CA0000346002B01D0012358E0FB681B681A691A
:102CB000FB685B6AD2B21A70FB685B6A5A1CFB68DD
:102CC0005A62FB681B8D013B9AB2FB681A85FB6850
:102CD0005B8D9BB2013B9AB2FB685A85FB681B680F
:102CE0005B6903F00403042B24D1FB681B8D032BC9
:102CF00007D1FB681B681A68FB681B6822F48062B6
:102D00001A60FB681B681A69FB685B6AD2B21A70AA
:102D1000FB685B6A5A1CFB685A62FB681B8D013BAF
:102D20009AB2FB681A85FB685B8D9BB2013B9AB235
:102D3000FB685A85FB681B8D002B7FF488AEFB680F
:102D4000202283F83D20FB68002283F83E20FB68A8
:102D5000002283F83C20002300E002231846283795
:102D6000BD4680BD040001001800002089B5F8149C
:102D700080B58AB002AFF8607A603B600B467B8119
:102D8000FFF796F8F8610023BB61FB6893F83D30CC
:102D9000DBB2202B40F01181FB6900931923012243
:102DA0008849F86800F090FA0346002B01D002230E
:102DB00004E1FB6893F83C30012B01D10223FDE0D4
:102DC000FB68012283F83C20FB681B681B6803F04A
:102DD0000103012B07D0FB681B681A68FB681B689E
:102DE00042F001021A60FB681B681A68FB681B68E6
:102DF00022F400621A60FB68242283F83D20FB68FD
:102E000000221A64FB68704ADA62FB681B681A6861
:102E1000FB681B6842F480721A60FB6900933B6890
:102E200000224FF00111F86800F04EFA0346002B23
:102E30000DD0FB681B681B6803F48073B3F5807FBB
:102E400003D1FB684FF400721A640323B6E07B8958
:102E5000DBB21A46FB681B6802F0FE021A61FFF73C
:102E600027F8F861FB681B685B6903F00203022B1B
:102E70000CBF01230023DBB2FB75FB681B685B6999
:102E800003F48063B3F5806F0CBF01230023DBB232
:102E9000BB7525E0FFF70CF80246FB69D31A3A68C8
:102EA0009A4202D33B68002B03D1FB68A02283F82F
:102EB0003D20FB681B685B6903F00203022B0CBF1B
:102EC00001230023DBB2FB75FB681B685B6903F41D
:102ED0008063B3F5806F0CBF01230023DBB2BB75A9
:102EE000FB6893F83D30DBB2A02B05D0FB7D002BB7
:102EF00002D1BB7D002BCDD0FB68202283F83D2082
:102F0000FB681B685B6903F00203022B29D1FB6895
:102F10001B681A68FB681B6842F400721A60002381
:102F20003B61FB681B685B693B61FB681B689B69D5
:102F30003B613B69FB690093192301222149F86831
:102F400000F0C2F90346002B01D0012336E0FB68F4
:102F5000202283F83D20FB68002283F83C200023D8
:102F60002CE0FB681B681A68FB681B6842F400725F
:102F70001A60FB681B686FF480625A61FB690093FA
:102F8000192301220F49F86800F09EF90346002B2F
:102F900001D0012312E0BB690133BB61BA697B68D0
:102FA0009A42FFF432AFFB68202283F83D20FB6891
:102FB000002283F83C20012300E00223184620373A
:102FC000BD4680BD020010000000FFFF80B588B044
:102FD00002AFF860084611461A4603467B810B464D
:102FE0003B811346FB80FB681B681A68FB681B6803
:102FF00042F480721A607B6A00933B6A00224FF0B1
:103000000111F86800F060F90346002B0DD0FB6851
:103010001B681B6803F48073B3F5807F03D1FB68E2
:103020004FF400721A6403235FE07B89DBB21A4617
:10303000FB681B6802F0FE021A617B6A3A6A2D493E
:10304000F86800F0BBF90346002B01D001234CE0E7
:1030500000237B61FB681B685B697B61FB681B6805
:103060009B697B617B697A6A396AF86800F046FA85
:103070000346002B0DD0FB681B6C042B07D1FB68AB
:103080001B681A68FB681B6842F400721A6001230F
:103090002BE0FB88012B05D13B89DAB2FB681B686A
:1030A0001A6121E03B891B0A9BB2DAB2FB681B68FC
:1030B0001A617A6A396AF86800F020FA0346002B30
:1030C0000DD0FB681B6C042B07D1FB681B681A68CA
:1030D000FB681B6842F400721A60012305E03B891B
:1030E000DAB2FB681B681A61002318461837BD4620
:1030F00080BD00BF0200010080B588B002AFF8605B
:10310000084611461A4603467B810B463B8113460F
:10311000FB80FB681B681A68FB681B6842F48062CE
:103120001A60FB681B681A68FB681B6842F48072AF
:103130001A607B6A00933B6A00224FF00111F86825
:1031400000F0C2F80346002B0DD0FB681B681B681B
:1031500003F48073B3F5807F03D1FB684FF40072F2
:103160001A640323AAE07B89DBB21A46FB681B685A
:1031700002F0FE021A617B6A3A6A5249F86800F06E
:103180001DF90346002B01D0012397E000237B614A
:10319000FB681B685B697B61FB681B689B697B61E3
:1031A0007B697A6A396AF86800F0A8F90346002B4F
:1031B0000DD0FB681B6C042B07D1FB681B681A68D9
:1031C000FB681B6842F400721A60012376E0FB88FA
:1031D000012B05D13B89DAB2FB681B681A6121E03B
:1031E0003B891B0A9BB2DAB2FB681B681A617A6AD8
:1031F000396AF86800F082F90346002B0DD0FB68AD
:103200001B6C042B07D1FB681B681A68FB681B68E2
:1032100042F400721A60012350E03B89DAB2FB6885
:103220001B681A617A6A396AF86800F067F9034620
:10323000002B0DD0FB681B6C042B07D1FB681B68AF
:103240001A68FB681B6842F400721A60012335E0BB
:10325000FB681B681A68FB681B6842F480721A607E
:103260007B6A00933B6A00224FF00111F86800F07E
:103270002BF80346002B0DD0FB681B681B6803F47A
:103280008073B3F5807F03D1FB684FF400721A643A
:10329000032313E07B89DBB243F00103DAB2FB685E
:1032A0001B681A617B6A3A6A0649F86800F086F87A
:1032B0000346002B01D0012300E0002318461837F5
:1032C000BD4680BD0200010080B584B000AFF8604B
:1032D000B9603B601346FB7148E03B68B3F1FF3FC8
:1032E00044D0FEF7E5FD0246BB69D31A3A689A421C
:1032F00002D33B68002B39D1BB681B0CDBB2012B1E
:103300000DD1FB681B685B69DA43BB6813409BB255
:10331000002B0CBF01230023DBB21A460CE0FB6834
:103320001B689B69DA43BB6813409BB2002B0CBF40
:1033300001230023DBB21A46FB799A4216D1FB68BF
:1033400000221A63FB68202283F83D20FB680022DC
:1033500083F83E20FB681B6C43F02002FB681A6474
:10336000FB68002283F83C20012323E0BB681B0C90
:10337000DBB2012B0DD1FB681B685B69DA43BB68CC
:1033800013409BB2002B0CBF01230023DBB21A4673
:103390000CE0FB681B689B69DA43BB6813409BB277
:1033A000002B0CBF01230023DBB21A46FB799A42A3
:1033B00093D0002318461037BD4680BD80B584B039
:1033C00000AFF860B9607A603B6071E0FB681B6831
:1033D0005B6903F48063B3F5806F23D1FB681B68DE
:1033E0001A68FB681B6842F400721A60FB681B686D
:1033F0006FF480625A61FB6800221A63FB68202226
:1034000083F83D20FB68002283F83E20FB681B6C9C
:1034100043F00402FB681A64FB68002283F83C2036
:10342000012367E07B68B3F1FF3F41D0FEF740FD29
:1034300002463B68D31A7A689A4202D37B68002B13
:1034400036D1BB681B0CDBB2012B0CD1FB681B68AF
:103450005B69DA43BB6813409BB2002B14BF0123A6
:103460000023DBB20BE0FB681B689B69DA43BB6897
:1034700013409BB2002B14BF01230023DBB2002BAF
:1034800016D0FB6800221A63FB68202283F83D20D7
:10349000FB68002283F83E20FB681B6C43F020028F
:1034A000FB681A64FB68002283F83C20012321E0BA
:1034B000BB681B0CDBB2012B0CD1FB681B685B6982
:1034C000DA43BB6813409BB2002B14BF01230023D7
:1034D000DBB20BE0FB681B689B69DA43BB681340F7
:1034E0009BB2002B14BF01230023DBB2002B7FF41F
:1034F0006DAF002318461037BD4680BD80B584B03F
:1035000000AFF860B9607A6034E0F86800F0E3F882
:103510000346002B01D0012334E0BB68B3F1FF3F29
:1035200028D0FEF7C5FC02467B68D31ABA689A42D7
:1035300002D3BB68002B1DD1FB681B685B6903F0DD
:103540008003802B16D0FB6800221A63FB682022C0
:1035500083F83D20FB68002283F83E20FB681B6C4B
:1035600043F02002FB681A64FB68002283F83C20C9
:10357000012307E0FB681B685B6903F08003802B75
:10358000C3D1002318461037BD4680BD80B584B036
:1035900000AFF860B9607A6034E0F86800F09BF83A
:1035A0000346002B01D0012334E0BB68B3F1FF3F99
:1035B00028D0FEF77DFC02467B68D31ABA689A428F
:1035C00002D3BB68002B1DD1FB681B685B6903F04D
:1035D0000403042B16D0FB6800221A63FB68202228
:1035E00083F83D20FB68002283F83E20FB681B6CBB
:1035F00043F02002FB681A64FB68002283F83C2039
:10360000012307E0FB681B685B6903F00403042BDC
:10361000C3D1002318461037BD4680BD80B584B0A5
:1036200000AFF860B9607A6049E0FB681B685B69CD
:1036300003F01003102B19D1FB681B686FF0100208
:103640005A61FB6800221A63FB68202283F83D2040
:10365000FB68002283F83E20FB681A6CFB681A6442
:10366000FB68002283F83C20012330E0FEF720FCB9
:1036700002467B68D31ABA689A4202D3BB68002B11
:103680001DD1FB681B685B6903F04003402B16D01B
:10369000FB6800221A63FB68202283F83D20FB6848
:1036A000002283F83E20FB681B6C43F02002FB687D
:1036B0001A64FB68002283F83C20012307E0FB68C2
:1036C0001B685B6903F04003402BAED10023184612
:1036D0001037BD4680BD80B483B000AF78607B6892
:1036E0001B685B6903F48063B3F5806F1BD17B6853
:1036F0001B686FF480625A617B6800221A637B68E2
:10370000202283F83D207B68002283F83E207B68DE
:103710001B6C43F004027B681A647B68002283F808
:103720003C20012300E0002318460C37BD4680BC36
:103730007047000080B586B000AF78607B68002BD2
:1037400001D1012372E27B681B6803F00103002BA7
:1037500000F08780924B5B6803F00C03042B0CD0C5
:103760008F4B5B6803F00C03082B12D18C4B5B680A
:1037700003F48033B3F5803F0BD1894B1B6803F40E
:103780000033002B6CD07B685B68002B68D1012371
:103790004CE27B685B68B3F5803F06D1804B1B68C9
:1037A0007F4A43F4803313602EE07B685B68002B14
:1037B0000CD17B4B1B687A4A23F480331360784B1F
:1037C0001B68774A23F4802313601DE07B685B68E5
:1037D000B3F5A02F0CD1724B1B68714A43F48023C0
:1037E00013606F4B1B686E4A43F4803313600BE029
:1037F0006B4B1B686A4A23F480331360684B1B6869
:10380000674A23F4802313607B685B68002B13D026
:10381000FEF74EFB386108E0FEF74AFB02463B69C3
:10382000D31A642B01D9032300E25D4B1B6803F418
:103830000033002BF0D014E0FEF73AFB386108E0CB
:10384000FEF736FB02463B69D31A642B01D90323EA
:10385000ECE1534B1B6803F40033002BF0D100E084
:1038600000BF7B681B6803F00203002B63D04C4B46
:103870005B6803F00C03002B0BD0494B5B6803F033
:103880000C03082B1CD1464B5B6803F48033002BE0
:1038900016D1434B1B6803F00203002B05D07B6855
:1038A0001B69012B01D00123C0E13D4B1B6823F0B4
:1038B000F8027B685B69DB00394913430B603AE02F
:1038C0007B681B69002B20D0364B01221A60FEF763
:1038D000EFFA386108E0FEF7EBFA02463B69D31ACB
:1038E000022B01D90323A1E12D4B1B6803F0020336
:1038F000002BF0D02A4B1B6823F0F8027B685B6931
:10390000DB00274913430B6015E0264B00221A60A9
:10391000FEF7CEFA386108E0FEF7CAFA02463B69C4
:10392000D31A022B01D9032380E11D4B1B6803F03E
:103930000203002BF0D17B681B6803F00803002B07
:103940003AD07B689B69002B19D0174B01221A6073
:10395000FEF7AEFA386108E0FEF7AAFA02463B69C4
:10396000D31A022B01D9032360E10D4B5B6A03F0EC
:103970000203002BF0D0012000F0CEFA1CE00A4B2D
:1039800000221A60FEF794FA38610FE0FEF790FA11
:1039900002463B69D31A022B08D9032346E100BF34
:1039A000001002400000424280044242924B5B6A97
:1039B00003F00203002BE9D17B681B6803F00403CA
:1039C000002B00F0A6800023FB758B4BDB6903F016
:1039D0008053002B0DD1884BDB69874A43F080531D
:1039E000D361854BDB6903F08053BB60BB68012367
:1039F000FB75824B1B6803F48073002B18D17F4B3F
:103A00001B687E4A43F480731360FEF751FA3861F5
:103A100008E0FEF74DFA02463B69D31A642B01D940
:103A2000032303E1754B1B6803F48073002BF0D074
:103A30007B68DB68012B06D16F4B1B6A6E4A43F033
:103A4000010313622DE07B68DB68002B0CD16A4B0D
:103A50001B6A694A23F001031362674B1B6A664ABB
:103A600023F0040313621CE07B68DB68052B0CD198
:103A7000614B1B6A604A43F0040313625E4B1B6A8E
:103A80005D4A43F0010313620BE05B4B1B6A5A4A29
:103A900023F001031362584B1B6A574A23F00403B7
:103AA00013627B68DB68002B15D0FEF701FA3861E2
:103AB0000AE0FEF7FDF902463B69D31A41F288326B
:103AC000934201D90323B1E04B4B1B6A03F002037D
:103AD000002BEED014E0FEF7EBF938610AE0FEF7B8
:103AE000E7F902463B69D31A41F28832934201D981
:103AF00003239BE0404B1B6A03F00203002BEED133
:103B0000FB7D012B05D13C4BDB693B4A23F0805305
:103B1000D3617B68DB69002B00F08780364B5B68E4
:103B200003F00C03082B61D07B68DB69022B46D1C4
:103B3000334B00221A60FEF7BBF9386108E0FEF74C
:103B4000B7F902463B69D31A022B01D903236DE072
:103B5000294B1B6803F00073002BF0D17B681B6AB4
:103B6000B3F5803F08D1244B5B6823F400327B68B7
:103B70009B68214913434B601F4B5B6823F474120D
:103B80007B68196A7B685B6A0B431B4913434B6074
:103B90001B4B01221A60FEF78BF9386108E0FEF733
:103BA00087F902463B69D31A022B01D903233DE072
:103BB000114B1B6803F00073002BF0D035E0104B65
:103BC00000221A60FEF774F9386108E0FEF770F918
:103BD00002463B69D31A022B01D9032326E0064B88
:103BE0001B6803F00073002BF0D11EE07B68DB69DB
:103BF000012B07D1012319E00010024000700040A2
:103C0000600042420B4B5B68FB60FB6803F4803250
:103C10007B681B6A9A4206D1FB6803F470127B68CA
:103C20005B6A9A4201D0012300E00023184618374E
:103C3000BD4680BD0010024080B584B000AF786002
:103C400039607B68002B01D10123D0E06A4B1B68EF
:103C500003F007033A689A4210D9674B1B6823F0B8
:103C6000070265493B6813430B60634B1B6803F015
:103C700007033A689A4201D00123B8E07B681B68C9
:103C800003F00203002B20D07B681B6803F00403C1
:103C9000002B05D0594B5B68584A43F4E0635360EE
:103CA0007B681B6803F00803002B05D0534B5B684F
:103CB000524A43F460535360504B5B6823F0F00268
:103CC0007B689B684D4913434B607B681B6803F01E
:103CD0000103002B40D07B685B68012B07D1474B69
:103CE0001B6803F40033002B15D101237FE07B68B0
:103CF0005B68022B07D1414B1B6803F00073002B5C
:103D000009D1012373E03D4B1B6803F00203002B34
:103D100001D101236BE0394B5B6823F003027B6820
:103D20005B68364913434B60FEF7C2F8F8600AE05F
:103D3000FEF7BEF80246FB68D31A41F2883293427E
:103D400001D9032353E02D4B5B6803F00C027B6821
:103D50005B689B009A42EBD1274B1B6803F007037B
:103D60003A689A4210D2244B1B6823F0070222497A
:103D70003B6813430B60204B1B6803F007033A6852
:103D80009A4201D0012332E07B681B6803F00403F0
:103D9000002B08D0194B5B6823F4E0627B68DB687A
:103DA000164913434B607B681B6803F00803002B24
:103DB00009D0124B5B6823F460527B681B69DB00FF
:103DC0000E4913434B6000F021F802460B4B5B6831
:103DD0001B0903F00F030A49CB5C22FA03F3094ADB
:103DE0001360094B1B681846FEF720F8002318469D
:103DF0001037BD4680BD00BF0020024000100240C9
:103E00002C8C0008180000201C00002080B487B013
:103E100000AF0023FB600023BB6000237B61002315
:103E20007B6000233B611E4B5B68FB60FB6803F01B
:103E30000C03042B02D0082B03D027E0194B3B6165
:103E400027E0FB689B0C03F00F03174AD35C7B60F1
:103E5000FB6803F48033002B10D0114B5B685B0CC4
:103E600003F00103114AD35CBB607B680D4A03FB7E
:103E700002F2BB68B2FBF3F37B6104E07B680C4A9F
:103E800002FB03F37B617B693B6102E0054B3B6115
:103E900000BF3B6918461C37BD4680BC704700BF59
:103EA0000010024000127A00448C0008548C000874
:103EB00000093D0080B400AF024B1B681846BD46A8
:103EC00080BC70471800002080B500AFFFF7F2FFFC
:103ED0000246054B5B681B0A03F007030349CB5CF2
:103EE00022FA03F3184680BD001002403C8C000803
:103EF00080B500AFFFF7DEFF0246054B5B68DB0ACB
:103F000003F007030349CB5C22FA03F3184680BD94
:103F1000001002403C8C000880B485B000AF78608F
:103F20000A4B1B680A4AA2FB03235B0A7A6802FB5E
:103F300003F3FB6000BFFB685A1EFA60002BF9D147
:103F400000BF00BF1437BD4680BC7047180000207A
:103F5000D34D621080B582B000AF78607B68002BD3
:103F600001D1012342E07B6893F84130DBB2002BA2
:103F700006D17B68002283F840207868FDF7DCFDDD
:103F80007B68242283F841207B681B68DA687B68A1
:103F90001B6822F40052DA60786800F071F97B68DF
:103FA0001B681A697B681B6822F490421A617B685F
:103FB0001B685A697B681B6822F02A025A617B6879
:103FC0001B68DA687B681B6842F40052DA607B6821
:103FD00000225A647B68202283F841207B682022DB
:103FE00083F842207B6800225A6300231846083772
:103FF000BD4680BD80B58AB002AFF860B9603B6055
:104000001346FB8000237B61FB6893F84130DBB2F1
:10401000202B75D1BB68002B02D0FB88002B01D16F
:1040200001236EE0FB6800225A64FB68212283F8BA
:104030004120FDF73DFF7861FB68FA889A84FB68B0
:10404000FA88DA84FB689B68B3F5805F08D1FB6867
:104050001B69002B04D10023FB61BB68BB6103E03B
:10406000BB68FB610023BB612EE03B6800937B696A
:1040700000228021F86800F048F80346002B05D0A4
:10408000FB68202283F8412003233AE0FB69002BE0
:104090000BD1BB691B881A46FB681B68C2F3080278
:1040A0005A60BB690233BB6107E0FB691A78FB68A1
:1040B0001B685A60FB690133FB61FB68DB8C9BB2B8
:1040C000013B9AB2FB68DA84FB68DB8C9BB2002B65
:1040D000CBD13B6800937B6900224021F86800F057
:1040E00014F80346002B05D0FB68202283F84120FA
:1040F000032306E0FB68202283F84120002300E030
:10410000022318462037BD4680BD80B586B000AF7B
:10411000F860B9603B601346FB713BE03B6AB3F16A
:10412000FF3F37D0FDF7C4FE02463B68D31A3A6A18
:104130009A4202D33B6A002B01D103233AE0FB6889
:104140001B68DB6803F00403002B23D0BB68802BC3
:1041500020D0BB68402B1DD0FB681B681B6803F098
:104160000803082B16D100237B61FB681B681B68C2
:104170007B61FB681B685B687B617B69F86800F0AA
:104180001DF8FB6808225A64FB68002283F840206F
:1041900001230FE0FB681B681A68BB681340BA680C
:1041A0009A420CBF01230023DBB21A46FB799A42E4
:1041B000B4D0002318461837BD4680BD80B495B0F2
:1041C00000AF78607B681B680C337B637B6B53E8C4
:1041D000003F3B633B6B23F49073FB647B681B687D
:1041E0000C33FA6C3A64FB63F96B3A6C41E80023D8
:1041F000BB63BB6B002BE5D17B681B6814333B6250
:104200003B6A53E8003FFB61FB6923F00103BB6499
:104210007B681B681433BA6CFA62BB62B96AFA6ACB
:1042200041E800237B627B6A002BE5D17B681B6B36
:10423000012B19D17B681B680C33FB60FB6853E8CA
:10424000003FBB60BB6823F010037B647B681B6886
:104250000C337A6CBA617B617969BA6941E80023F1
:104260003B613B69002BE5D17B68202283F842202B
:104270007B6800221A6300BF5437BD4680BC70477C
:1042800080B584B000AF78607B681B681B6923F43D
:1042900040517B68DA687B681B680A431A617B6857
:1042A0009A687B681B691A437B685B691343BB6030
:1042B0007B681B68DB6823F4B05323F00C037A6837
:1042C0001268B9680B43D3607B681B685B6923F491
:1042D00040717B689A697B681B680A435A617B68F6
:1042E0001B682C4A934203D1FFF702FEF86002E0FC
:1042F000FFF7EAFDF860FA6813469B0013449A0042
:104300001A447B685B689B00B2FBF3F3224AA2FB72
:1043100003235B091901FA6813469B0013449A00B2
:104320001A447B685B689B00B2FBF3F21A4BA3FB59
:1043300002035B09642000FB03F3D31A1B01323331
:10434000154AA2FB03235B0903F0F0031944FA6842
:1043500013469B0013449A001A447B685B689B00D9
:10436000B2FBF3F20C4BA3FB02035B09642000FBDE
:1043700003F3D31A1B013233074AA2FB03235B0961
:1043800003F00F027B681B680A449A6000BF103775
:10439000BD4680BD003801401F85EB51002B2DE943
:1043A000F0471D46BBBF03F100431D4600232D23EC
:1043B00088B01446B8BF1446129A109E1370149B0E
:1043C000DDF84CA023F02008B8F1460F05D0B8F175
:1043D000450F00D10136022300E0032307AA04920F
:1043E00006AACDE902A2CDE9003622462B4601F00D
:1043F0007FF9B8F1470F074619D1119BDB070ED59E
:1044000000EB06090022002320462946FCF7CCFADF
:1044100008B1CDF81C903022079B4B451ED338467F
:10442000079B159ADB1B136008B0BDE8F087B8F155
:10443000460F00EB0609E5D10378302B0AD10022A4
:10444000002320462946FCF7AFFA18B9C6F1010649
:10445000CAF80060DAF800309944D3E7591C079194
:104460001A70D9E7F7B50029B6BF2D232B2349428F
:1044700009290270437029DD0DF107031D460A2743
:10448000B1FBF7F61A4607FB1614303402F8014C5C
:104490000C46632C314603F1FF33F1DC3031941EBE
:1044A00003F8011C2346411CAB420AD30DF109035A
:1044B0009B1AAC4288BF002302330344181A03B08E
:1044C000F0BD13F8016B01F8016FEDE730233031D7
:1044D0008370C170031DF1E72DE9F04F91B00C46D8
:1044E000DDF8688016461F46054600F0EFFF0368BA
:1044F00018460893FBF72CFE00230E93D8F80030E3
:104500000990073323F0070303F1080294F818A079
:10451000D4F800B0C8F80020D3E9008929F000439E
:104520000B93CDF828804FF0FF32DDE90A01C4E992
:1045300012899C4BFCF76AFA70BBDDE90A014FF067
:10454000FF32984BFCF744FA30BB00220023404670
:104550004946FCF733FA10B12D2384F84330924AD0
:10456000924BBAF1470F8CBF9046984603234FF009
:10457000000923612BF004032360334621462846BB
:1045800000970FAA00F0D4F9013040F090804FF06E
:10459000FF3011B0BDE8F08F42464B4640464946D9
:1045A000FCF734FA48B14B46002BB8BF2D23804AA4
:1045B000B8BF84F843307F4BD3E763680AF0DF016C
:1045C0005A1C3FD10623636000224BF480632360B2
:1045D00006920EAACDE904A20DAA03920DF13302B0
:1045E000CDE9013263684246009328464B460A9162
:1045F000FFF7D4FE0A99804647290D9928D1C81C97
:1046000002DB6368994240DDAAF1020A5FFA8AFA86
:104610005246013904F150000D91FFF723FF0E9A25
:1046200081461318012A236102DC2268D20701D5D2
:10463000013323619DF83330002B9ED02D2384F865
:1046400043309AE74729BFD1002BBDD10123BAE7F8
:10465000BAF1650FDCD9BAF1660F18D10029636889
:104660000BDD216113B92268D00702D501330B4459
:1046700023614FF00009A165DCE713B92268D20776
:1046800001D50233F4E70123F2E74FF0670A0E9BEE
:10469000994205DB23682161D807EAD54B1CE7E77F
:1046A0000029CCBF0122C1F102021344E0E72368D4
:1046B0005A0507D42369424631462846B847013097
:1046C0002BD164E7BAF1650F40F2DC80D4E9120126
:1046D00000220023FCF768F9002833D0012331467B
:1046E0002846354AB84701303FF451AFDDE90D386F
:1046F000434502DB2368D8070FD5DDE9082331469F
:104700002846B84701303FF442AF4FF0000908F1A6
:10471000FF3804F11A0AC84509DC23689B0700F139
:104720000281E0680F9B9842B8BF184631E7012329
:10473000524631462846B84701303FF428AF09F1C8
:104740000109E8E70D9B002B38DC012331462846A0
:10475000194AB84701303FF41AAFDDE90D3959EA7B
:10476000030302D12368D907D7D5DDE908233146F1
:104770002846B84701303FF40AAF4FF0000A04F171
:104780001A0B0D9B5B42534501DC4B4693E701231B
:104790005A4631462846B84701303FF4F8AE0AF190
:1047A000010AEEE7FFFFEF7F5A8C0008568C0008E5
:1047B000628C00085E8C0008668C0008A36DDDF832
:1047C00038A05345A8BF5346002B994636DC4FF01E
:1047D000000B29EAE97904F11A02A36D0A93A3EB0D
:1047E00009035B4531DC0D9B9A453ADC2368DA0707
:1047F00037D40D9BAAEB03090A9BAAEB0303994547
:10480000A8BF9946B9F1000F33DC4FF0000829EA40
:10481000E97904F11A0B0D9BAAEB0303A3EB09033F
:1048200043457FF77AAF01235A4631462846B847B9
:1048300001303FF4ACAE08F10108ECE742463146E6
:104840002846B8470130C2D1A1E6012331462846A7
:104850000A92B84701303FF49AAE0A9A0BF1010B65
:10486000BBE73146DDE908232846B8470130C0D10F
:104870008DE60A9A4B46314628464244B8470130F5
:10488000C3D184E6DDF838A0BAF1010F01DCDB0703
:1048900036D50123424631462846B84701303FF419
:1048A00076AEDDE9082331462846B84701303FF4AB
:1048B0006EAED4E91201002200230AF1FF3AFCF7A0
:1048C00073F8C0B9534608F1010231462846B8478B
:1048D00001300CD15BE601235A4631462846B847E1
:1048E00001303FF454AE08F10108D045F3DB4B46EC
:1048F00004F15002E0E64FF0000804F11A0BF4E76F
:1049000001234246E1E701234A4631462846B8479B
:1049100001303FF43CAE08F10108E3680F995B1ADF
:104920004345F0DCFDE64FF0000804F11909F4E717
:104930002DE9F047164698468A680B690746934268
:10494000B8BF1346336091F843200C46DDF8209041
:104950000AB1013333602368990642BF33680233DA
:104960003360256815F0060506D104F1190AE368DD
:1049700032689B1AAB422BDC94F843302268003B30
:1049800018BF0123920630D44146384604F1430251
:10499000C847013023D02368226903F00603042BA3
:1049A00014BF002533684FF0000608BFE56804F126
:1049B0001A0408BFED1A54F8123C08BF25EAE57541
:1049C0009342C4BF9B1AED18B5421AD1002008E0EB
:1049D0000123524641463846C847013003D14FF0C3
:1049E000FF30BDE8F0870135C1E73020E11881F8DC
:1049F00043005A1C94F845102244023382F84310B5
:104A0000C2E70123224641463846C8470130E6D076
:104A10000136D9E72DE9FF470F7E9146782F804672
:104A20000C469A460C9E01F1430207D8622F0AD821
:104A3000002F00F0D180582F00F0B88004F142061A
:104A400084F842703AE0A7F16303152BF6D801A170
:104A500051F823F0AD4A0008C14A00083D4A000859
:104A60003D4A00083D4A00083D4A0008C14A000886
:104A70003D4A00083D4A00083D4A00083D4A0008FA
:104A8000BF4B0008EB4A0008794B00083D4A00087C
:104A90003D4A0008E14B00083D4A0008EB4A000887
:104AA0003D4A00083D4A0008814B000833681A1D42
:104AB0001B68326004F1420684F8423001239CE016
:104AC00033682068191D3160060601D51D6803E0B2
:104AD0004506FBD5B3F90050002D03DA2D236D42B6
:104AE00084F843300A23584811E0216833680806E7
:104AF00053F8045B02D4490648BFADB26F2F336050
:104B000014BF0A2308235048002184F84310666824
:104B1000002EA66005DB21682E4321F004012160F0
:104B20004BD01646B5FBF3F103FB1157C75D06F8F2
:104B3000017D2F46BB420D46F4D9082B0BD12368CB
:104B4000DF0708D5236961689942DEBF302306F884
:104B5000013C06F1FF36921B22614B46214640463E
:104B6000CDF800A003AAFFF7E3FE01304AD14FF0D1
:104B7000FF3004B0BDE8F087236843F020032360D2
:104B80007827324884F84570236831681F0651F849
:104B9000045B02D45F0648BFADB23160D90744BFA1
:104BA00043F0200323601DB11023ADE72648E9E759
:104BB000236823F020032360F6E71646BDE7336839
:104BC0002568181D616930602E061B6801D51960C3
:104BD00002E06806FBD51980002316462361BCE776
:104BE000336800211A1D32601E686268304600F08A
:104BF000E4FC08B1801B606063682361002384F8D3
:104C00004330AAE73246494640462369D04701303F
:104C1000ADD023689B0713D4E068039B9842B8BFCC
:104C20001846A6E70123324649464046D0470130A0
:104C30009DD00135E36803995B1AAB42F2DCEBE7E8
:104C4000002504F11906F5E7688C0008798C000846
:104C50002DE9F04F87B003938B6891465A1EB2F549
:104C6000AE7F82BF6FF4AE7503EB050B40F25D13B0
:104C70000A464FF0000588BF8B600B68804643F4FE
:104C8000F06342F81C3B0C4698BF4FF0000B1646F1
:104C9000AA462F46CDE9045501920295A2685AB161
:104CA000D9F800301B784E2B62D8402B3AD8A3F1AC
:104CB0002B01C8B20E2838D91FB1236823F48073A2
:104CC00023600AF1FF3ABAF1010F00F21481019B4F
:104CD0009E4200F20581012007B0BDE8F08FA3F1EC
:104CE00061020D2AE8D801A151F822F0354E0008E2
:104CF000B94C0008B94C0008B94C0008914E0008A6
:104D00006B4E0008B94C0008B94C0008434E00082F
:104D1000B94C0008B94C0008B94C0008B94C00085F
:104D2000FF4D0008A3F14102DBE70E29C4D801A022
:104D300050F821F0EF4D0008B94C0008EF4D000885
:104D40007F4E0008B94C0008914D0008D54D000871
:104D5000D54D0008D54D0008D54D0008D54D0008AB
:104D6000D54D0008D54D0008D54D0008D54D00089B
:104D70006E2B09D8602BB2D8542B7BD0592B9BD1EA
:104D8000072D99D108252FE0742B73D0792BF6E7E6
:104D90002168C8051ED521F0800121600137BBF1D3
:104DA000000F03D001320BF1FF3BA260A368013B6F
:104DB000A360236901332361D9F80430013B002B40
:104DC000C9F8043040F38380D9F800300133C9F8C2
:104DD000003063E71AEB05017FF46EAF0D468A469B
:104DE000226822F4C072226006F8013BDEE72268E6
:104DF00010067FF561AF22F080022260F4E7BAF17D
:104E0000000F0CD177B9226802F4E061B1F5E06FD0
:104E100008D122F4F0624FF0010A2260E4E7BAF10F
:104E2000020F51D0012D02D0042D7FF445AF013582
:104E3000EDB2D9E7BAF1010F7FF43EAF4FF0020AAD
:104E4000D2E775B9002F7FF438AF226802F4E06131
:104E5000B1F5E06F40F0FF8022F4F062012522609E
:104E6000C2E7032DE3D0052DDFE7022D7FF424AF49
:104E70000325B9E7062D7FF41FAF0725B4E72268A5
:104E800091057FF519AF22F4207222600297ABE7FB
:104E9000226802F4A061B1F5806F05D050057FF55E
:104EA0000BAF002F00F0D780910558BF029922F474
:104EB000F06258BF791A42F4C0724FF0000758BF31
:104EC000CDE9041622608FE74FF0030A8CE74946CC
:104ED0004046D4F88031984700283FF4DFAEEBE637
:104EE000D4F87C314A46404616F8011D984723699C
:104EF000013B2361EBE66B1E062B24D8022D36D82E
:104F0000019B9E427FF6E7AED4F87C314A4640468C
:104F100016F8011D98472369013B2361F0E7D4F897
:104F20007C314A4640461BF8011D98472369013BE6
:104F300023610AF1FF3A5FFA8AFABAF1020FEED161
:104F4000033DEDB2761B2368DA0530D55B0511D53C
:104F5000019B9E427FF6BFAED4F87C314A46404664
:104F600016F8011D98472369013B2361F0E7AA4623
:104F7000B346DEE716F8011C2369652903F1FF3308
:104F800006F1FF3523610CD045290AD0D4F87C31D5
:104F90004A4640469847236916F8021C013BB51E55
:104FA00023614A464046D4F87C3198472E46226811
:104FB00012F0100201D000208EE63270236803F454
:104FC000C063B3F5806F25D1029B9F420AD0DA1BE4
:104FD00004F26F139E4228BF04F5B77630461F498E
:104FE00000F072F900224046019902F0EDFC039BAB
:104FF00025681B6815F0020F06460F4603F10402F0
:1050000015D003990A601B68C3E90067E3680133A0
:10501000E360D0E7049B002BE4D005990A234046C7
:10502000013102F051FD049B059EC21AD0E76D07C5
:10503000E7D4039D2A601D6802460B46FBF7E6FC99
:1050400020B1074800F0C8FA2860DFE7304639464B
:10505000FBF73AFDF8E7002733E600BF8A8C00082B
:10506000CB8D0008002310B50446C0E90033C0E929
:105070000433836081814366C281836119460822BB
:105080005C3000F01BFA0D4B246263620C4BA36290
:105090000C4BE3620C4B23630C4B9C4206D003F198
:1050A0006802944202D0D0339C4205D104F15800EA
:1050B000BDE8104000F07EBA10BD00BF0D530008DF
:1050C0002F530008675300088B530008300300205B
:1050D000024A0349034800F069B800BF24000020D9
:1050E000FD8000083400002041680C4B10B5994247
:1050F000044601D003F002F8A168094B994202D09E
:10510000204602F0FBFFE168064B994204D020469E
:10511000BDE8104002F0F2BF10BD00BF3003002018
:10512000980300200004002010B50B4B0B4C0C4AD8
:1051300020461A6004210022FFF794FF04F1680062
:1051400001220921FFF78EFF04F1D0000222BDE801
:1051500010401221FFF786BF6804002030030020B2
:10516000D1500008014800F026BA00BF71040020A9
:10517000014800F021BA00BF7104002010B50446B8
:10518000FFF7F0FF236A1BB1BDE81040FFF7F0BF47
:10519000044B2362044B1B68002BF5D1FFF7C4FFBF
:1051A000F2E700BFE9500008680400202DE9F84349
:1051B0000746884614460026D4E90195B9F101094D
:1051C00005D52468002CF7D13046BDE8F883AB89BB
:1051D000012B07D9B5F90E30013303D029463846E3
:1051E000C04706436835E9E70FB407B5064904AB85
:1051F000086853F8042B8168019302F0E7FD03B0BF
:105200005DF804EB04B0704730000020036A70B50D
:1052100005460E4684680BB9FFF7B0FF636EDB07E7
:1052200005D4A389980502D4A06D00F0C4F9A38920
:10523000190702D52369002B35D12146284600F0F5
:10524000E7F880B34FF0FF35636EDA0705D4A38922
:105250009B0502D4A06D00F0AFF9284670BD002B6D
:1052600004DAA2699A4217DC0A2915D023685A1C6D
:1052700022601970A36816F8011F013BA360002982
:10528000EDD1002B11DA22460A21284600F081F8E0
:105290000130D7D00A25D7E72246284600F079F812
:1052A0000130E7D1CEE7013EE4E723685A1C2260D3
:1052B0000A221A70EEE70000024B01461868FFF759
:1052C000A5BF00BF300000200EB46FF0004110B544
:1052D00000249DB01FAB02900690079104910948ED
:1052E000094953F8042B0591006802A901931B9406
:1052F00002F048FC029B1C701DB0BDE8104003B0DA
:10530000704700BF300000200802FFFF10B50C46B8
:10531000B1F90E1000F000F90028ABBF636DA3894E
:105320001B1823F48053ACBF6365A38110BD2DE926
:10533000F0411F468B890546DB050C46164605D510
:1053400002230022B1F90E1000F0D4F8A3893246EE
:1053500023F48053A38128463B46B4F90E10BDE8E0
:10536000F04100F0EBB810B50C46B1F90E1000F0AA
:10537000C1F8431CA38915BF606523F4805343F42F
:105380008053A38118BFA38110BDB1F90E1000F0A6
:10539000A1B8F8B50E461446054618B1036A0BB914
:1053A000FFF7ECFEA369A360A3891A0701D523695F
:1053B00043B92146284600F02BF818B14FF0FF37CB
:1053C0003846F8BD23682269F6B2981A63693746F1
:1053D000834205DC2146284602F090FE0028EDD1EC
:1053E000A368013BA36023685A1C22601E70626997
:1053F000431C9A4204D0A389DB07E1D50A2EDFD1F2
:105400002146284602F07AFE0028D9D0D6E70000CF
:1054100038B5294B054618680C4618B1036A0BB914
:10542000FFF7ACFEB4F90C30190722D4DA0607D422
:1054300009222A6043F040034FF0FF30A38133E09C
:10544000580712D5616B41B104F14403994202D06F
:10545000284600F021FF00236363A38923F024037F
:10546000A3810023636023692360A38943F00803B9
:10547000A38123694BB9A38903F42073B3F5007F9B
:1054800003D02146284602F086FEB4F90C3013F012
:1054900001020AD00022A26062695242A26122691E
:1054A00042B913F08000C5D138BD990758BF626971
:1054B000A260F4E70020F7E7300000200346024432
:1054C000934200D1704703F8011BF9E70048704789
:1054D0007001002038B50023054D044608462B60B6
:1054E000FCF7FBFB431C02D12B6803B1236038BDE2
:1054F0006C04002038B50446084611460022054DCC
:105500002A601A46FCF70DFC431C02D12B6803B13C
:10551000236038BD6C04002038B5044608461146A7
:105520000022054D2A601A46FCF79EFB431C02D15F
:105530002B6803B1236038BD6C04002038B50446E5
:10554000084611460022054D2A601A46FCF7A9FBC1
:10555000431C02D12B6803B1236038BD6C040020CA
:10556000014B1868704700BF3000002070B500265E
:105570000C4D0D4C641BA410A64209D103F0D8FABF
:1055800000260A4D0A4C641BA410A64205D170BD2A
:1055900055F8043B98470136EEE755F8043B984729
:1055A0000136F2E784900008849000088490000897
:1055B00088900008704770477047034610B5C9B21D
:1055C00002449342184601D1002003E004780133DD
:1055D0008C42F6D110BD0000004870470000C07F2B
:1055E0002DE9F74F03690C690746A3427EDB013CB6
:1055F000A30000F1140501F11408009305EB8403E6
:10560000019358F8243055F8242001339A42B2FB14
:10561000F3F608EB84092ED34FF0000AC446AE46D9
:10562000D3465CF8043B98B206FB00A01B0C020CAE
:1056300006FB0323DEF8002080B292B2121A5A440D
:10564000DEF800004FEA134A9BB2C3EB224303EBA0
:10565000104392B242EA0342E1454FEA234B4EF82F
:10566000042BDED2009BEB582BB9019B043B9D42DF
:105670001A462FD33C61384601F0C8F9002825DBD3
:105680002946002058F8042BD1F800C01FFA82FEEA
:105690001FFA8CF3A3EB0E030344120CC2EB23425C
:1056A00002EB1C429BB243EA0243C1454FEA22404F
:1056B00041F8043BE6D255F8242005EB840322B9D7
:1056C000043B9D421A460BD33C610136304603B081
:1056D000BDE8F08F1268043B002ACBD1013CC6E73D
:1056E0001268043B002AEFD1013CEAE70020EEE714
:1056F0002DE9F04F14461D46C76997B08146CDE9A4
:105700000645239E7FB9102000F00EFE0246C9F820
:105710001C0020B9EF21AC4BAC4802F0EBFDC0E916
:1057200001770760C760D9F81C30196859B15A6809
:10573000012393404A608B60484600F0EBFE002254
:10574000D9F81C301A602B1EAFBF0023012223F0B2
:1057500000430793A8BF3360DDF81C809C4BB8BFA3
:10576000326033EA080312D142F20F73229A1360B7
:10577000C8F31303234300F05E85249BDFF854A293
:10578000002B00F060850AF1030300F05ABDDDE94B
:105790000623CDE90C23DDE90C0100220023FBF7F1
:1057A00003F9074658B10123229A1360249B13B1D1
:1057B000894B249A1360DFF824A200F044BD14AB97
:1057C000019315AB00934846DDE90C2301F036FA4E
:1057D000C8F30A560390002E78D0DDE90C010D9B2A
:1057E000A6F2FF36C3F3130343F07F5343F4401391
:1057F0001297194600227A4BFAF7B6FC6CA3D3E94C
:105800000023FAF769FE6CA3D3E90023FAF7AEFC94
:10581000044630460D46FAF7F5FD69A3D3E90023A7
:10582000FAF75AFE02460B4620462946FAF79EFC36
:1058300004460D46FBF700F90022074600232046E8
:105840002946FBF7BBF840B13846FAF7DBFD2246A4
:105850002B46FBF7A9F800B9013F162F54D8DDE914
:105860000C01604B03EBC703D3E90023FBF7A6F859
:1058700000284BD00023013F0F93149B9B1B5A1E03
:1058800049BFC3F10103002304930023099254BFCD
:1058900004930993002F3BDB099B0E973B4409932C
:1058A00000230A93209B092B65D8052BC4BF043B1A
:1058B0002093209BC8BF0024A3F10203D8BF01247A
:1058C000032B64D8DFE803F05355382CDDE914636B
:1058D0001E4406F23243202BC1BFC3F1400308FA35
:1058E00003F806F2124324FA03F3D6BFC3F12003F0
:1058F00048EA030004FA03F0FAF774FD0122A1F16B
:10590000F873013E129274E70123B5E70F90B4E7F4
:10591000049BDB1B04937B420A9300230E93C1E795
:1059200001230B93219B07EB030B0BF10103012BCD
:105930000893B8BF012306E001230B93219B002BA2
:1059400028DD9B46089300210422D9F81C0002F1AF
:1059500014059D4226D94160484600F09BFD8246D1
:10596000002843D1024640F2AF111F4BD4E600237A
:10597000E3E70023D5E7012400230B9420934FF0A5
:10598000FF3B00221223CDF820B02192DBE7012358
:105990000B93F4E74FF0010B5B46CDF820B0CDF848
:1059A00084B0D0E701315200D1E700BFAFF30080EF
:1059B00061436F63A787D23FB3C8608B288AC63F15
:1059C000FB799F501344D33F9C8C0008B38C000894
:1059D0000000F07F988C0008678C0008668C000837
:1059E0000000F83F608E00080B8D0008D9F81C30CD
:1059F0001860089B0E2B00F2A180002C00F09E8006
:105A0000002F33DD9C4B07F00F0203EBC203F805B8
:105A1000D3E90034CDE910344FEA271416D5DDE977
:105A20000C01964B0326D3E90823FAF77FFECDE954
:105A3000060104F00F04914D54B9DDE91023DDE9AE
:105A40000601FAF773FECDE9060128E00226F2E727
:105A5000E10708D5DDE91001D5E90023FAF73CFD9F
:105A6000CDE91001013664100835E5E700F0AF809C
:105A7000DDE90C017C42804B04F00F0203EBC20312
:105A8000D3E90023FAF728FD02260023CDE9060119
:105A90007A4D2411002C40F08F80002BD3D1DDE90A
:105AA00006450F9B002B00F09480002220462946DB
:105AB000734BFAF783FF002800F08B80089B002BC4
:105AC00000F08780BBF1000F34DD2046002229461C
:105AD0006C4BFAF701FD5C46CDE9060107F1FF3892
